{
  "_format": "hh-sol-artifact-1",
  "contractName": "Raffle",
  "sourceName": "contracts/Raffle.sol",
  "abi": [
    {
      "inputs": [
        {
          "internalType": "address",
          "name": "vrfCoordinator",
          "type": "address"
        },
        {
          "internalType": "bytes32",
          "name": "gasLane",
          "type": "bytes32"
        },
        {
          "internalType": "uint64",
          "name": "subscriptionId",
          "type": "uint64"
        },
        {
          "internalType": "uint32",
          "name": "callbackGasLimit",
          "type": "uint32"
        },
        {
          "internalType": "uint256",
          "name": "entranceFee",
          "type": "uint256"
        },
        {
          "internalType": "uint256",
          "name": "interval",
          "type": "uint256"
        }
      ],
      "stateMutability": "nonpayable",
      "type": "constructor"
    },
    {
      "inputs": [
        {
          "internalType": "address",
          "name": "have",
          "type": "address"
        },
        {
          "internalType": "address",
          "name": "want",
          "type": "address"
        }
      ],
      "name": "OnlyCoordinatorCanFulfill",
      "type": "error"
    },
    {
      "inputs": [],
      "name": "Raffle__NotEnoughETHEntered",
      "type": "error"
    },
    {
      "inputs": [],
      "name": "Raffle__NotOpen",
      "type": "error"
    },
    {
      "inputs": [],
      "name": "Raffle__TransferFailed",
      "type": "error"
    },
    {
      "inputs": [
        {
          "internalType": "uint256",
          "name": "currentBalance",
          "type": "uint256"
        },
        {
          "internalType": "uint256",
          "name": "numPlayers",
          "type": "uint256"
        },
        {
          "internalType": "uint256",
          "name": "raffleState",
          "type": "uint256"
        }
      ],
      "name": "Raffle__UpKeepNotNeeded",
      "type": "error"
    },
    {
      "anonymous": false,
      "inputs": [
        {
          "indexed": true,
          "internalType": "address",
          "name": "player",
          "type": "address"
        }
      ],
      "name": "RaffleEnter",
      "type": "event"
    },
    {
      "anonymous": false,
      "inputs": [
        {
          "indexed": true,
          "internalType": "uint256",
          "name": "requestId",
          "type": "uint256"
        }
      ],
      "name": "RequestedRaffleWinner",
      "type": "event"
    },
    {
      "anonymous": false,
      "inputs": [
        {
          "indexed": true,
          "internalType": "address",
          "name": "winner",
          "type": "address"
        }
      ],
      "name": "WinnerPicked",
      "type": "event"
    },
    {
      "inputs": [
        {
          "internalType": "bytes",
          "name": "",
          "type": "bytes"
        }
      ],
      "name": "checkUpkeep",
      "outputs": [
        {
          "internalType": "bool",
          "name": "upKeepNeeded",
          "type": "bool"
        },
        {
          "internalType": "bytes",
          "name": "",
          "type": "bytes"
        }
      ],
      "stateMutability": "nonpayable",
      "type": "function"
    },
    {
      "inputs": [],
      "name": "enterRaffle",
      "outputs": [],
      "stateMutability": "payable",
      "type": "function"
    },
    {
      "inputs": [],
      "name": "getEntranceFee",
      "outputs": [
        {
          "internalType": "uint256",
          "name": "",
          "type": "uint256"
        }
      ],
      "stateMutability": "view",
      "type": "function"
    },
    {
      "inputs": [],
      "name": "getInterval",
      "outputs": [
        {
          "internalType": "uint256",
          "name": "",
          "type": "uint256"
        }
      ],
      "stateMutability": "view",
      "type": "function"
    },
    {
      "inputs": [],
      "name": "getLastTimestamp",
      "outputs": [
        {
          "internalType": "uint256",
          "name": "",
          "type": "uint256"
        }
      ],
      "stateMutability": "view",
      "type": "function"
    },
    {
      "inputs": [],
      "name": "getNumWords",
      "outputs": [
        {
          "internalType": "uint256",
          "name": "",
          "type": "uint256"
        }
      ],
      "stateMutability": "pure",
      "type": "function"
    },
    {
      "inputs": [],
      "name": "getNumberOfPlayers",
      "outputs": [
        {
          "internalType": "uint256",
          "name": "",
          "type": "uint256"
        }
      ],
      "stateMutability": "view",
      "type": "function"
    },
    {
      "inputs": [
        {
          "internalType": "uint256",
          "name": "index",
          "type": "uint256"
        }
      ],
      "name": "getPlayer",
      "outputs": [
        {
          "internalType": "address payable",
          "name": "",
          "type": "address"
        }
      ],
      "stateMutability": "view",
      "type": "function"
    },
    {
      "inputs": [],
      "name": "getRaffleState",
      "outputs": [
        {
          "internalType": "enum Raffle.RaffleState",
          "name": "",
          "type": "uint8"
        }
      ],
      "stateMutability": "view",
      "type": "function"
    },
    {
      "inputs": [],
      "name": "getRecentWinner",
      "outputs": [
        {
          "internalType": "address",
          "name": "",
          "type": "address"
        }
      ],
      "stateMutability": "view",
      "type": "function"
    },
    {
      "inputs": [],
      "name": "getRequestConfirmations",
      "outputs": [
        {
          "internalType": "uint256",
          "name": "",
          "type": "uint256"
        }
      ],
      "stateMutability": "pure",
      "type": "function"
    },
    {
      "inputs": [
        {
          "internalType": "bytes",
          "name": "",
          "type": "bytes"
        }
      ],
      "name": "performUpkeep",
      "outputs": [],
      "stateMutability": "nonpayable",
      "type": "function"
    },
    {
      "inputs": [
        {
          "internalType": "uint256",
          "name": "requestId",
          "type": "uint256"
        },
        {
          "internalType": "uint256[]",
          "name": "randomWords",
          "type": "uint256[]"
        }
      ],
      "name": "rawFulfillRandomWords",
      "outputs": [],
      "stateMutability": "nonpayable",
      "type": "function"
    }
  ],
  "bytecode": "0x6101606040523480156200001257600080fd5b5060405162001a0a38038062001a0a8339818101604052810190620000389190620002a0565b858073ffffffffffffffffffffffffffffffffffffffff1660808173ffffffffffffffffffffffffffffffffffffffff1660601b81525050506000600160146101000a81548160ff021916908360018111156200009a57620000996200033c565b5b0217905550426002819055508061014081815250508160c081815250508573ffffffffffffffffffffffffffffffffffffffff1660a08173ffffffffffffffffffffffffffffffffffffffff1660601b815250508460e081815250508367ffffffffffffffff166101008167ffffffffffffffff1660c01b815250508263ffffffff166101208163ffffffff1660e01b815250505050505050506200036b565b600080fd5b600073ffffffffffffffffffffffffffffffffffffffff82169050919050565b60006200016c826200013f565b9050919050565b6200017e816200015f565b81146200018a57600080fd5b50565b6000815190506200019e8162000173565b92915050565b6000819050919050565b620001b981620001a4565b8114620001c557600080fd5b50565b600081519050620001d981620001ae565b92915050565b600067ffffffffffffffff82169050919050565b620001fe81620001df565b81146200020a57600080fd5b50565b6000815190506200021e81620001f3565b92915050565b600063ffffffff82169050919050565b6200023f8162000224565b81146200024b57600080fd5b50565b6000815190506200025f8162000234565b92915050565b6000819050919050565b6200027a8162000265565b81146200028657600080fd5b50565b6000815190506200029a816200026f565b92915050565b60008060008060008060c08789031215620002c057620002bf6200013a565b5b6000620002d089828a016200018d565b9650506020620002e389828a01620001c8565b9550506040620002f689828a016200020d565b94505060606200030989828a016200024e565b93505060806200031c89828a0162000289565b92505060a06200032f89828a0162000289565b9150509295509295509295565b7f4e487b7100000000000000000000000000000000000000000000000000000000600052602160045260246000fd5b60805160601c60a05160601c60c05160e0516101005160c01c6101205160e01c61014051611623620003e7600039600081816107f4015261095e015260006106a501526000610682015260006106610152600081816102fa01526103f701526000610625015260008181610337015261038b01526116236000f3fe6080604052600436106100c25760003560e01c8063473f1ddc1161007f5780636e04ff0d116100595780636e04ff0d1461022557806391ad27b414610263578063e55ae4e81461028e578063fd6673f5146102cb576100c2565b8063473f1ddc146101a457806353a2c19a146101cf5780635f1b0fd8146101fa576100c2565b806309bc33a7146100c7578063115cbaf5146100f25780631fe543e31461011d5780632cfcc5391461014657806337899770146101505780634585e33b1461017b575b600080fd5b3480156100d357600080fd5b506100dc6102f6565b6040516100e99190610d8b565b60405180910390f35b3480156100fe57600080fd5b5061010761031e565b6040516101149190610e1d565b60405180910390f35b34801561012957600080fd5b50610144600480360381019061013f9190610fd1565b610335565b005b61014e6103f5565b005b34801561015c57600080fd5b50610165610564565b6040516101729190610d8b565b60405180910390f35b34801561018757600080fd5b506101a2600480360381019061019d91906110e2565b61056e565b005b3480156101b057600080fd5b506101b961076c565b6040516101c6919061116c565b60405180910390f35b3480156101db57600080fd5b506101e4610796565b6040516101f19190610d8b565b60405180910390f35b34801561020657600080fd5b5061020f6107a5565b60405161021c9190610d8b565b60405180910390f35b34801561023157600080fd5b5061024c600480360381019061024791906110e2565b6107b2565b60405161025a92919061122a565b60405180910390f35b34801561026f57600080fd5b5061027861095a565b6040516102859190610d8b565b60405180910390f35b34801561029a57600080fd5b506102b560048036038101906102b0919061125a565b610982565b6040516102c291906112a8565b60405180910390f35b3480156102d757600080fd5b506102e06109c9565b6040516102ed9190610d8b565b60405180910390f35b60007f0000000000000000000000000000000000000000000000000000000000000000905090565b6000600160149054906101000a900460ff16905090565b7f000000000000000000000000000000000000000000000000000000000000000073ffffffffffffffffffffffffffffffffffffffff163373ffffffffffffffffffffffffffffffffffffffff16146103e757337f00000000000000000000000000000000000000000000000000000000000000006040517f1cf993f40000000000000000000000000000000000000000000000000000000081526004016103de9291906112c3565b60405180910390fd5b6103f182826109d5565b5050565b7f000000000000000000000000000000000000000000000000000000000000000034101561044f576040517fbd4e069500000000000000000000000000000000000000000000000000000000815260040160405180910390fd5b6000600181111561046357610462610da6565b5b600160149054906101000a900460ff16600181111561048557610484610da6565b5b146104bc576040517f1425571c00000000000000000000000000000000000000000000000000000000815260040160405180910390fd5b6000339080600181540180825580915050600190039060005260206000200160009091909190916101000a81548173ffffffffffffffffffffffffffffffffffffffff021916908373ffffffffffffffffffffffffffffffffffffffff1602179055503373ffffffffffffffffffffffffffffffffffffffff167f0805e1d667bddb8a95f0f09880cf94f403fb596ce79928d9f29b74203ba284d460405160405180910390a2565b6000600254905090565b6000610588604051806020016040528060008152506107b2565b509050806105f75747600080549050600160149054906101000a900460ff1660018111156105b9576105b8610da6565b5b6040517f3a8d60860000000000000000000000000000000000000000000000000000000081526004016105ee939291906112ec565b60405180910390fd5b60018060146101000a81548160ff0219169083600181111561061c5761061b610da6565b5b021790555060007f000000000000000000000000000000000000000000000000000000000000000073ffffffffffffffffffffffffffffffffffffffff16635d3b1d307f00000000000000000000000000000000000000000000000000000000000000007f000000000000000000000000000000000000000000000000000000000000000060037f000000000000000000000000000000000000000000000000000000000000000060016040518663ffffffff1660e01b81526004016106e695949392919061139b565b602060405180830381600087803b15801561070057600080fd5b505af1158015610714573d6000803e3d6000fd5b505050506040513d601f19601f820116820180604052508101906107389190611403565b9050807fcd6e45c8998311cab7e9d4385596cac867e20a0587194b954fa3a731c93ce78b60405160405180910390a2505050565b6000600160009054906101000a900473ffffffffffffffffffffffffffffffffffffffff16905090565b6000600163ffffffff16905090565b6000600361ffff16905090565b6000606060008060018111156107cb576107ca610da6565b5b600160149054906101000a900460ff1660018111156107ed576107ec610da6565b5b14905060007f000000000000000000000000000000000000000000000000000000000000000060025442610821919061145f565b119050600080600080549050119050600080471190506108766040518060400160405280600881526020017f232369734f70656e00000000000000000000000000000000000000000000000081525085610c06565b6108b56040518060400160405280600c81526020017f232374696d65506173736564000000000000000000000000000000000000000081525084610c06565b6108f46040518060400160405280600c81526020017f2323686173506c6179657273000000000000000000000000000000000000000081525083610c06565b6109336040518060400160405280600c81526020017f232368617342616c616e6365000000000000000000000000000000000000000081525082610c06565b83801561093d5750825b80156109465750815b801561094f5750805b955050505050915091565b60007f0000000000000000000000000000000000000000000000000000000000000000905090565b600080828154811061099757610996611493565b5b9060005260206000200160009054906101000a900473ffffffffffffffffffffffffffffffffffffffff169050919050565b60008080549050905090565b60008080549050826000815181106109f0576109ef611493565b5b6020026020010151610a0291906114f1565b90506000808281548110610a1957610a18611493565b5b9060005260206000200160009054906101000a900473ffffffffffffffffffffffffffffffffffffffff16905080600160006101000a81548173ffffffffffffffffffffffffffffffffffffffff021916908373ffffffffffffffffffffffffffffffffffffffff160217905550600067ffffffffffffffff811115610aa257610aa1610e8e565b5b604051908082528060200260200182016040528015610ad05781602001602082028036833780820191505090505b5060009080519060200190610ae6929190610ccb565b506000600160146101000a81548160ff02191690836001811115610b0d57610b0c610da6565b5b02179055504260028190555060008173ffffffffffffffffffffffffffffffffffffffff1647604051610b3f90611553565b60006040518083038185875af1925050503d8060008114610b7c576040519150601f19603f3d011682016040523d82523d6000602084013e610b81565b606091505b5050905080610bbc576040517fa1d04b3900000000000000000000000000000000000000000000000000000000815260040160405180910390fd5b8173ffffffffffffffffffffffffffffffffffffffff167f5b690ec4a06fe979403046eaeea5b3ce38524683c3001f662c8b5a829632f7df60405160405180910390a25050505050565b610c9e8282604051602401610c1c9291906115bd565b6040516020818303038152906040527fc3b55635000000000000000000000000000000000000000000000000000000007bffffffffffffffffffffffffffffffffffffffffffffffffffffffff19166020820180517bffffffffffffffffffffffffffffffffffffffffffffffffffffffff8381831617835250505050610ca2565b5050565b60008151905060006a636f6e736f6c652e6c6f679050602083016000808483855afa5050505050565b828054828255906000526020600020908101928215610d44579160200282015b82811115610d435782518260006101000a81548173ffffffffffffffffffffffffffffffffffffffff021916908373ffffffffffffffffffffffffffffffffffffffff16021790555091602001919060010190610ceb565b5b509050610d519190610d55565b5090565b5b80821115610d6e576000816000905550600101610d56565b5090565b6000819050919050565b610d8581610d72565b82525050565b6000602082019050610da06000830184610d7c565b92915050565b7f4e487b7100000000000000000000000000000000000000000000000000000000600052602160045260246000fd5b60028110610de657610de5610da6565b5b50565b6000819050610df782610dd5565b919050565b6000610e0782610de9565b9050919050565b610e1781610dfc565b82525050565b6000602082019050610e326000830184610e0e565b92915050565b6000604051905090565b600080fd5b600080fd5b610e5581610d72565b8114610e6057600080fd5b50565b600081359050610e7281610e4c565b92915050565b600080fd5b6000601f19601f8301169050919050565b7f4e487b7100000000000000000000000000000000000000000000000000000000600052604160045260246000fd5b610ec682610e7d565b810181811067ffffffffffffffff82111715610ee557610ee4610e8e565b5b80604052505050565b6000610ef8610e38565b9050610f048282610ebd565b919050565b600067ffffffffffffffff821115610f2457610f23610e8e565b5b602082029050602081019050919050565b600080fd5b6000610f4d610f4884610f09565b610eee565b90508083825260208201905060208402830185811115610f7057610f6f610f35565b5b835b81811015610f995780610f858882610e63565b845260208401935050602081019050610f72565b5050509392505050565b600082601f830112610fb857610fb7610e78565b5b8135610fc8848260208601610f3a565b91505092915050565b60008060408385031215610fe857610fe7610e42565b5b6000610ff685828601610e63565b925050602083013567ffffffffffffffff81111561101757611016610e47565b5b61102385828601610fa3565b9150509250929050565b600080fd5b600067ffffffffffffffff82111561104d5761104c610e8e565b5b61105682610e7d565b9050602081019050919050565b82818337600083830152505050565b600061108561108084611032565b610eee565b9050828152602081018484840111156110a1576110a061102d565b5b6110ac848285611063565b509392505050565b600082601f8301126110c9576110c8610e78565b5b81356110d9848260208601611072565b91505092915050565b6000602082840312156110f8576110f7610e42565b5b600082013567ffffffffffffffff81111561111657611115610e47565b5b611122848285016110b4565b91505092915050565b600073ffffffffffffffffffffffffffffffffffffffff82169050919050565b60006111568261112b565b9050919050565b6111668161114b565b82525050565b6000602082019050611181600083018461115d565b92915050565b60008115159050919050565b61119c81611187565b82525050565b600081519050919050565b600082825260208201905092915050565b60005b838110156111dc5780820151818401526020810190506111c1565b838111156111eb576000848401525b50505050565b60006111fc826111a2565b61120681856111ad565b93506112168185602086016111be565b61121f81610e7d565b840191505092915050565b600060408201905061123f6000830185611193565b818103602083015261125181846111f1565b90509392505050565b6000602082840312156112705761126f610e42565b5b600061127e84828501610e63565b91505092915050565b60006112928261112b565b9050919050565b6112a281611287565b82525050565b60006020820190506112bd6000830184611299565b92915050565b60006040820190506112d8600083018561115d565b6112e5602083018461115d565b9392505050565b60006060820190506113016000830186610d7c565b61130e6020830185610d7c565b61131b6040830184610d7c565b949350505050565b6000819050919050565b61133681611323565b82525050565b600067ffffffffffffffff82169050919050565b6113598161133c565b82525050565b600061ffff82169050919050565b6113768161135f565b82525050565b600063ffffffff82169050919050565b6113958161137c565b82525050565b600060a0820190506113b0600083018861132d565b6113bd6020830187611350565b6113ca604083018661136d565b6113d7606083018561138c565b6113e4608083018461138c565b9695505050505050565b6000815190506113fd81610e4c565b92915050565b60006020828403121561141957611418610e42565b5b6000611427848285016113ee565b91505092915050565b7f4e487b7100000000000000000000000000000000000000000000000000000000600052601160045260246000fd5b600061146a82610d72565b915061147583610d72565b92508282101561148857611487611430565b5b828203905092915050565b7f4e487b7100000000000000000000000000000000000000000000000000000000600052603260045260246000fd5b7f4e487b7100000000000000000000000000000000000000000000000000000000600052601260045260246000fd5b60006114fc82610d72565b915061150783610d72565b925082611517576115166114c2565b5b828206905092915050565b600081905092915050565b50565b600061153d600083611522565b91506115488261152d565b600082019050919050565b600061155e82611530565b9150819050919050565b600081519050919050565b600082825260208201905092915050565b600061158f82611568565b6115998185611573565b93506115a98185602086016111be565b6115b281610e7d565b840191505092915050565b600060408201905081810360008301526115d78185611584565b90506115e66020830184611193565b939250505056fea26469706673582212209075e087fbdb4fcd20ec05a59250f21b921e90a1223fcc32574e489d9cee30da64736f6c63430008080033",
  "linkReferences": {},
  "deployedLinkReferences": {}
}