{
  "_format": "hh-sol-artifact-1",
  "contractName": "Raffle",
  "sourceName": "contracts/Raffle.sol",
  "abi": [
    {
      "inputs": [
        {
          "internalType": "address",
          "name": "vrfCoordinator",
          "type": "address"
        },
        {
          "internalType": "bytes32",
          "name": "gasLane",
          "type": "bytes32"
        },
        {
          "internalType": "uint64",
          "name": "subscriptionId",
          "type": "uint64"
        },
        {
          "internalType": "uint32",
          "name": "callbackGasLimit",
          "type": "uint32"
        },
        {
          "internalType": "uint256",
          "name": "entranceFee",
          "type": "uint256"
        },
        {
          "internalType": "uint256",
          "name": "interval",
          "type": "uint256"
        }
      ],
      "stateMutability": "nonpayable",
      "type": "constructor"
    },
    {
      "inputs": [
        {
          "internalType": "address",
          "name": "have",
          "type": "address"
        },
        {
          "internalType": "address",
          "name": "want",
          "type": "address"
        }
      ],
      "name": "OnlyCoordinatorCanFulfill",
      "type": "error"
    },
    {
      "inputs": [],
      "name": "Raffle__NotEnoughETHEntered",
      "type": "error"
    },
    {
      "inputs": [],
      "name": "Raffle__NotOpen",
      "type": "error"
    },
    {
      "inputs": [],
      "name": "Raffle__TransferFailed",
      "type": "error"
    },
    {
      "inputs": [
        {
          "internalType": "uint256",
          "name": "currentBalance",
          "type": "uint256"
        },
        {
          "internalType": "uint256",
          "name": "numPlayers",
          "type": "uint256"
        },
        {
          "internalType": "uint256",
          "name": "raffleState",
          "type": "uint256"
        }
      ],
      "name": "Raffle__UpKeepNotNeeded",
      "type": "error"
    },
    {
      "anonymous": false,
      "inputs": [
        {
          "indexed": true,
          "internalType": "address",
          "name": "player",
          "type": "address"
        }
      ],
      "name": "RaffleEnter",
      "type": "event"
    },
    {
      "anonymous": false,
      "inputs": [
        {
          "indexed": true,
          "internalType": "uint256",
          "name": "requestId",
          "type": "uint256"
        }
      ],
      "name": "RequestedRaffleWinner",
      "type": "event"
    },
    {
      "anonymous": false,
      "inputs": [
        {
          "indexed": true,
          "internalType": "address",
          "name": "winner",
          "type": "address"
        }
      ],
      "name": "WinnerPicked",
      "type": "event"
    },
    {
      "inputs": [
        {
          "internalType": "bytes",
          "name": "",
          "type": "bytes"
        }
      ],
      "name": "checkUpkeep",
      "outputs": [
        {
          "internalType": "bool",
          "name": "upKeepNeeded",
          "type": "bool"
        },
        {
          "internalType": "bytes",
          "name": "",
          "type": "bytes"
        }
      ],
      "stateMutability": "nonpayable",
      "type": "function"
    },
    {
      "inputs": [],
      "name": "enterRaffle",
      "outputs": [],
      "stateMutability": "payable",
      "type": "function"
    },
    {
      "inputs": [],
      "name": "getEntranceFee",
      "outputs": [
        {
          "internalType": "uint256",
          "name": "",
          "type": "uint256"
        }
      ],
      "stateMutability": "view",
      "type": "function"
    },
    {
      "inputs": [],
      "name": "getInterval",
      "outputs": [
        {
          "internalType": "uint256",
          "name": "",
          "type": "uint256"
        }
      ],
      "stateMutability": "view",
      "type": "function"
    },
    {
      "inputs": [],
      "name": "getLastTimestamp",
      "outputs": [
        {
          "internalType": "uint256",
          "name": "",
          "type": "uint256"
        }
      ],
      "stateMutability": "view",
      "type": "function"
    },
    {
      "inputs": [],
      "name": "getNumWords",
      "outputs": [
        {
          "internalType": "uint256",
          "name": "",
          "type": "uint256"
        }
      ],
      "stateMutability": "pure",
      "type": "function"
    },
    {
      "inputs": [],
      "name": "getNumberOfPlayers",
      "outputs": [
        {
          "internalType": "uint256",
          "name": "",
          "type": "uint256"
        }
      ],
      "stateMutability": "view",
      "type": "function"
    },
    {
      "inputs": [
        {
          "internalType": "uint256",
          "name": "index",
          "type": "uint256"
        }
      ],
      "name": "getPlayer",
      "outputs": [
        {
          "internalType": "address payable",
          "name": "",
          "type": "address"
        }
      ],
      "stateMutability": "view",
      "type": "function"
    },
    {
      "inputs": [],
      "name": "getRaffleState",
      "outputs": [
        {
          "internalType": "enum Raffle.RaffleState",
          "name": "",
          "type": "uint8"
        }
      ],
      "stateMutability": "view",
      "type": "function"
    },
    {
      "inputs": [],
      "name": "getRecentWinner",
      "outputs": [
        {
          "internalType": "address",
          "name": "",
          "type": "address"
        }
      ],
      "stateMutability": "view",
      "type": "function"
    },
    {
      "inputs": [],
      "name": "getRequestConfirmations",
      "outputs": [
        {
          "internalType": "uint256",
          "name": "",
          "type": "uint256"
        }
      ],
      "stateMutability": "pure",
      "type": "function"
    },
    {
      "inputs": [
        {
          "internalType": "bytes",
          "name": "",
          "type": "bytes"
        }
      ],
      "name": "performUpkeep",
      "outputs": [],
      "stateMutability": "nonpayable",
      "type": "function"
    },
    {
      "inputs": [
        {
          "internalType": "uint256",
          "name": "requestId",
          "type": "uint256"
        },
        {
          "internalType": "uint256[]",
          "name": "randomWords",
          "type": "uint256[]"
        }
      ],
      "name": "rawFulfillRandomWords",
      "outputs": [],
      "stateMutability": "nonpayable",
      "type": "function"
    }
  ],
  "bytecode": "0x6101606040523480156200001257600080fd5b50604051620017c4380380620017c48339818101604052810190620000389190620002a0565b858073ffffffffffffffffffffffffffffffffffffffff1660808173ffffffffffffffffffffffffffffffffffffffff1660601b81525050506000600160146101000a81548160ff021916908360018111156200009a57620000996200033c565b5b0217905550426002819055508061014081815250508160c081815250508573ffffffffffffffffffffffffffffffffffffffff1660a08173ffffffffffffffffffffffffffffffffffffffff1660601b815250508460e081815250508367ffffffffffffffff166101008167ffffffffffffffff1660c01b815250508263ffffffff166101208163ffffffff1660e01b815250505050505050506200036b565b600080fd5b600073ffffffffffffffffffffffffffffffffffffffff82169050919050565b60006200016c826200013f565b9050919050565b6200017e816200015f565b81146200018a57600080fd5b50565b6000815190506200019e8162000173565b92915050565b6000819050919050565b620001b981620001a4565b8114620001c557600080fd5b50565b600081519050620001d981620001ae565b92915050565b600067ffffffffffffffff82169050919050565b620001fe81620001df565b81146200020a57600080fd5b50565b6000815190506200021e81620001f3565b92915050565b600063ffffffff82169050919050565b6200023f8162000224565b81146200024b57600080fd5b50565b6000815190506200025f8162000234565b92915050565b6000819050919050565b6200027a8162000265565b81146200028657600080fd5b50565b6000815190506200029a816200026f565b92915050565b60008060008060008060c08789031215620002c057620002bf6200013a565b5b6000620002d089828a016200018d565b9650506020620002e389828a01620001c8565b9550506040620002f689828a016200020d565b94505060606200030989828a016200024e565b93505060806200031c89828a0162000289565b92505060a06200032f89828a0162000289565b9150509295509295509295565b7f4e487b7100000000000000000000000000000000000000000000000000000000600052602160045260246000fd5b60805160601c60a05160601c60c05160e0516101005160c01c6101205160e01c610140516113dd620003e7600039600081816107f40152610862015260006106a501526000610682015260006106610152600081816102fa01526103f701526000610625015260008181610337015261038b01526113dd6000f3fe6080604052600436106100c25760003560e01c8063473f1ddc1161007f5780636e04ff0d116100595780636e04ff0d1461022557806391ad27b414610263578063e55ae4e81461028e578063fd6673f5146102cb576100c2565b8063473f1ddc146101a457806353a2c19a146101cf5780635f1b0fd8146101fa576100c2565b806309bc33a7146100c7578063115cbaf5146100f25780631fe543e31461011d5780632cfcc5391461014657806337899770146101505780634585e33b1461017b575b600080fd5b3480156100d357600080fd5b506100dc6102f6565b6040516100e99190610bca565b60405180910390f35b3480156100fe57600080fd5b5061010761031e565b6040516101149190610c5c565b60405180910390f35b34801561012957600080fd5b50610144600480360381019061013f9190610e10565b610335565b005b61014e6103f5565b005b34801561015c57600080fd5b50610165610564565b6040516101729190610bca565b60405180910390f35b34801561018757600080fd5b506101a2600480360381019061019d9190610f21565b61056e565b005b3480156101b057600080fd5b506101b961076c565b6040516101c69190610fab565b60405180910390f35b3480156101db57600080fd5b506101e4610796565b6040516101f19190610bca565b60405180910390f35b34801561020657600080fd5b5061020f6107a5565b60405161021c9190610bca565b60405180910390f35b34801561023157600080fd5b5061024c60048036038101906102479190610f21565b6107b2565b60405161025a929190611069565b60405180910390f35b34801561026f57600080fd5b5061027861085e565b6040516102859190610bca565b60405180910390f35b34801561029a57600080fd5b506102b560048036038101906102b09190611099565b610886565b6040516102c291906110e7565b60405180910390f35b3480156102d757600080fd5b506102e06108cd565b6040516102ed9190610bca565b60405180910390f35b60007f0000000000000000000000000000000000000000000000000000000000000000905090565b6000600160149054906101000a900460ff16905090565b7f000000000000000000000000000000000000000000000000000000000000000073ffffffffffffffffffffffffffffffffffffffff163373ffffffffffffffffffffffffffffffffffffffff16146103e757337f00000000000000000000000000000000000000000000000000000000000000006040517f1cf993f40000000000000000000000000000000000000000000000000000000081526004016103de929190611102565b60405180910390fd5b6103f182826108d9565b5050565b7f000000000000000000000000000000000000000000000000000000000000000034101561044f576040517fbd4e069500000000000000000000000000000000000000000000000000000000815260040160405180910390fd5b6000600181111561046357610462610be5565b5b600160149054906101000a900460ff16600181111561048557610484610be5565b5b146104bc576040517f1425571c00000000000000000000000000000000000000000000000000000000815260040160405180910390fd5b6000339080600181540180825580915050600190039060005260206000200160009091909190916101000a81548173ffffffffffffffffffffffffffffffffffffffff021916908373ffffffffffffffffffffffffffffffffffffffff1602179055503373ffffffffffffffffffffffffffffffffffffffff167f0805e1d667bddb8a95f0f09880cf94f403fb596ce79928d9f29b74203ba284d460405160405180910390a2565b6000600254905090565b6000610588604051806020016040528060008152506107b2565b509050806105f75747600080549050600160149054906101000a900460ff1660018111156105b9576105b8610be5565b5b6040517f3a8d60860000000000000000000000000000000000000000000000000000000081526004016105ee9392919061112b565b60405180910390fd5b60018060146101000a81548160ff0219169083600181111561061c5761061b610be5565b5b021790555060007f000000000000000000000000000000000000000000000000000000000000000073ffffffffffffffffffffffffffffffffffffffff16635d3b1d307f00000000000000000000000000000000000000000000000000000000000000007f000000000000000000000000000000000000000000000000000000000000000060037f000000000000000000000000000000000000000000000000000000000000000060016040518663ffffffff1660e01b81526004016106e69594939291906111da565b602060405180830381600087803b15801561070057600080fd5b505af1158015610714573d6000803e3d6000fd5b505050506040513d601f19601f820116820180604052508101906107389190611242565b9050807fcd6e45c8998311cab7e9d4385596cac867e20a0587194b954fa3a731c93ce78b60405160405180910390a2505050565b6000600160009054906101000a900473ffffffffffffffffffffffffffffffffffffffff16905090565b6000600163ffffffff16905090565b6000600361ffff16905090565b6000606060008060018111156107cb576107ca610be5565b5b600160149054906101000a900460ff1660018111156107ed576107ec610be5565b5b14905060007f000000000000000000000000000000000000000000000000000000000000000060025442610821919061129e565b119050600080600080549050119050600080471190508380156108415750825b801561084a5750815b80156108535750805b955050505050915091565b60007f0000000000000000000000000000000000000000000000000000000000000000905090565b600080828154811061089b5761089a6112d2565b5b9060005260206000200160009054906101000a900473ffffffffffffffffffffffffffffffffffffffff169050919050565b60008080549050905090565b60008080549050826000815181106108f4576108f36112d2565b5b60200260200101516109069190611330565b9050600080828154811061091d5761091c6112d2565b5b9060005260206000200160009054906101000a900473ffffffffffffffffffffffffffffffffffffffff16905080600160006101000a81548173ffffffffffffffffffffffffffffffffffffffff021916908373ffffffffffffffffffffffffffffffffffffffff160217905550600067ffffffffffffffff8111156109a6576109a5610ccd565b5b6040519080825280602002602001820160405280156109d45781602001602082028036833780820191505090505b50600090805190602001906109ea929190610b0a565b506000600160146101000a81548160ff02191690836001811115610a1157610a10610be5565b5b02179055504260028190555060008173ffffffffffffffffffffffffffffffffffffffff1647604051610a4390611392565b60006040518083038185875af1925050503d8060008114610a80576040519150601f19603f3d011682016040523d82523d6000602084013e610a85565b606091505b5050905080610ac0576040517fa1d04b3900000000000000000000000000000000000000000000000000000000815260040160405180910390fd5b8173ffffffffffffffffffffffffffffffffffffffff167f5b690ec4a06fe979403046eaeea5b3ce38524683c3001f662c8b5a829632f7df60405160405180910390a25050505050565b828054828255906000526020600020908101928215610b83579160200282015b82811115610b825782518260006101000a81548173ffffffffffffffffffffffffffffffffffffffff021916908373ffffffffffffffffffffffffffffffffffffffff16021790555091602001919060010190610b2a565b5b509050610b909190610b94565b5090565b5b80821115610bad576000816000905550600101610b95565b5090565b6000819050919050565b610bc481610bb1565b82525050565b6000602082019050610bdf6000830184610bbb565b92915050565b7f4e487b7100000000000000000000000000000000000000000000000000000000600052602160045260246000fd5b60028110610c2557610c24610be5565b5b50565b6000819050610c3682610c14565b919050565b6000610c4682610c28565b9050919050565b610c5681610c3b565b82525050565b6000602082019050610c716000830184610c4d565b92915050565b6000604051905090565b600080fd5b600080fd5b610c9481610bb1565b8114610c9f57600080fd5b50565b600081359050610cb181610c8b565b92915050565b600080fd5b6000601f19601f8301169050919050565b7f4e487b7100000000000000000000000000000000000000000000000000000000600052604160045260246000fd5b610d0582610cbc565b810181811067ffffffffffffffff82111715610d2457610d23610ccd565b5b80604052505050565b6000610d37610c77565b9050610d438282610cfc565b919050565b600067ffffffffffffffff821115610d6357610d62610ccd565b5b602082029050602081019050919050565b600080fd5b6000610d8c610d8784610d48565b610d2d565b90508083825260208201905060208402830185811115610daf57610dae610d74565b5b835b81811015610dd85780610dc48882610ca2565b845260208401935050602081019050610db1565b5050509392505050565b600082601f830112610df757610df6610cb7565b5b8135610e07848260208601610d79565b91505092915050565b60008060408385031215610e2757610e26610c81565b5b6000610e3585828601610ca2565b925050602083013567ffffffffffffffff811115610e5657610e55610c86565b5b610e6285828601610de2565b9150509250929050565b600080fd5b600067ffffffffffffffff821115610e8c57610e8b610ccd565b5b610e9582610cbc565b9050602081019050919050565b82818337600083830152505050565b6000610ec4610ebf84610e71565b610d2d565b905082815260208101848484011115610ee057610edf610e6c565b5b610eeb848285610ea2565b509392505050565b600082601f830112610f0857610f07610cb7565b5b8135610f18848260208601610eb1565b91505092915050565b600060208284031215610f3757610f36610c81565b5b600082013567ffffffffffffffff811115610f5557610f54610c86565b5b610f6184828501610ef3565b91505092915050565b600073ffffffffffffffffffffffffffffffffffffffff82169050919050565b6000610f9582610f6a565b9050919050565b610fa581610f8a565b82525050565b6000602082019050610fc06000830184610f9c565b92915050565b60008115159050919050565b610fdb81610fc6565b82525050565b600081519050919050565b600082825260208201905092915050565b60005b8381101561101b578082015181840152602081019050611000565b8381111561102a576000848401525b50505050565b600061103b82610fe1565b6110458185610fec565b9350611055818560208601610ffd565b61105e81610cbc565b840191505092915050565b600060408201905061107e6000830185610fd2565b81810360208301526110908184611030565b90509392505050565b6000602082840312156110af576110ae610c81565b5b60006110bd84828501610ca2565b91505092915050565b60006110d182610f6a565b9050919050565b6110e1816110c6565b82525050565b60006020820190506110fc60008301846110d8565b92915050565b60006040820190506111176000830185610f9c565b6111246020830184610f9c565b9392505050565b60006060820190506111406000830186610bbb565b61114d6020830185610bbb565b61115a6040830184610bbb565b949350505050565b6000819050919050565b61117581611162565b82525050565b600067ffffffffffffffff82169050919050565b6111988161117b565b82525050565b600061ffff82169050919050565b6111b58161119e565b82525050565b600063ffffffff82169050919050565b6111d4816111bb565b82525050565b600060a0820190506111ef600083018861116c565b6111fc602083018761118f565b61120960408301866111ac565b61121660608301856111cb565b61122360808301846111cb565b9695505050505050565b60008151905061123c81610c8b565b92915050565b60006020828403121561125857611257610c81565b5b60006112668482850161122d565b91505092915050565b7f4e487b7100000000000000000000000000000000000000000000000000000000600052601160045260246000fd5b60006112a982610bb1565b91506112b483610bb1565b9250828210156112c7576112c661126f565b5b828203905092915050565b7f4e487b7100000000000000000000000000000000000000000000000000000000600052603260045260246000fd5b7f4e487b7100000000000000000000000000000000000000000000000000000000600052601260045260246000fd5b600061133b82610bb1565b915061134683610bb1565b92508261135657611355611301565b5b828206905092915050565b600081905092915050565b50565b600061137c600083611361565b91506113878261136c565b600082019050919050565b600061139d8261136f565b915081905091905056fea264697066735822122049a73ee458ca1e3c205967ee9e738b6018c4d0572954b9c591e891d581d43ecb64736f6c63430008080033",
  "linkReferences": {},
  "deployedLinkReferences": {}
}